S0100000436F736D696344432E737265632F
S113000055C000005BC0000059C0000057C000008C
S113001055C0000053C0000051C000004FC0000094
S11300204DC000004BC0000049C0000047C00000A4
S113003045C0000043C0000041C000003FC00000B4
S11300403DC000003BC0000039C0000037C00000C4
S113005035C0000033C0000031C000002FC00000D4
S11300602DC000002BC0000029C0000027C00000E4
S113007025C0000023C0000021C000001FC00000F4
S11300801DC000001BC0000019C0000017C0000004
S113009015C0000013C0000011C000000FC0000014
S11300A00DC000000BC0000009C0000011241FBED9
S11300B0CFEFDAE0DEBFCDBF80D09EC0A1CF1092DB
S11300C0B9008DEF8093B800089594EA9093BC0032
S11300D0ECEBF0E090819923ECF79091B900987FD4
S11300E0983011F09031A1F48093BB0084E88093A0
S11300F0BC00ECEBF0E080818823ECF79091B90030
S1130100987F983139F081E0903429F480E00895A3
S113011081E0089580E00895CF93DF93ECEBF0E065
S113012024EAA9EBB0E0CBEBD0E034E844E9208347
S113013090819923ECF79C91987F983011F090313D
S1130140B1F78883308390819923ECF79C91987F51
S1130150903211F0983529F44083908194FDFDCFBD
S1130160E6CFDF91CF910895B0CF089584E98093CD
S1130170BC00ECEBF0E0808184FDFDCF089580931A
S1130180BB0084E88093BC00ECEBF0E08081882322
S1130190ECF79091B900987F81E0983209F480E0FF
S11301A0089584E88093BC00ECEBF0E08081882320
S11301B0ECF78091BB0008950895579A559A5D987D
S11301C0FBDF7DDF80EAA8DF80E0D9DF85E0D7DFD1
S11301D083E2D5DFCBDF80EA9FDF80E0D0DF85E0FC
S11301E0CEDF81EAC1DFDDDFC1DF87EA91E6019777
S10F01F0F1F700C00000E5CFF894FFCF49
S9030000FC
