S0100000436F736D696344432E737265632F
S11300000C9456000C9460000C9460000C946000F6
S11300100C9460000C9460000C9460000C946000DC
S11300200C9460000C9460000C9460000C946000CC
S11300300C9460000C9460000C9460000C946000BC
S11300400C9460000C9460000C9460000C946000AC
S11300500C9460000C9460000C9460000C9460009C
S11300600C9460000C9460000C9460000C9460008C
S11300700C9460000C9460000C9460000C9460007C
S11300800C9460000C9460000C9460000C9460006C
S11300900C9460000C9460000C9460000C9460005C
S11300A00C9460000C9460000C94600011241FBE3A
S11300B0CFEFDAE0DEBFCDBF0E9462000C9479007E
S11300C00C9400008FEF87B988B92FEF39E698E1D7
S11300D0215030409040E1F700C0000018B82FEFE5
S11300E039E698E1215030409040E1F700C000002B
S10900F0EBCFF894FFCFF2
S9030000FC
