:100000000C9446000C9463000C9463000C94630001
:100010000C9463000C9463000C9463000C946300D4
:100020000C9463000C9463000C9463000C946300C4
:100030000C9463000C9463000C9463000C946300B4
:100040000C9463000C9463000C9463000C946300A4
:100050000C9463000C9463000C9463000C94630094
:100060000C9463000C9463000C9463000C94630084
:100070000C9463000C9463000C9463000C94630074
:100080000C9463000C9463000C94630011241FBE55
:10009000CFEFD0E1DEBFCDBF11E0A0E0B1E0EAEAF2
:1000A000F7E102C005900D92A032B107D9F723E025
:1000B000A0E2B1E001C01D92A83EB207E1F70E94A4
:1000C00049070C94D30B0C940000FC01218130E013
:1000D000322F22278081A901482BCA010895FC01F3
:1000E00023816281862F90E0A0E0B0E0DC019927B7
:1000F0008827B22B2081822B2181BC01CD01722B5C
:1001000008950F931F93CF93DF9300D0CDB7DEB741
:10011000009781F16230710580F1FC01AB0160E074
:1001200070E0440F551F661F771F86819781A08559
:10013000B1858A019B01080F191F2A1F3B1FC901A6
:10014000B8010190F081E02D0190F081E02D22E0D6
:1001500030E0AE014F5F5F4F0995882341F0898100
:100160009A819C01215031092F3E3F4F40F080E0A1
:1001700090E005C080E090E002C080E090E00F9049
:100180000F90DF91CF911F910F9108950F931F93BF
:10019000FC01892B99F062307105A0F09B0122507F
:1001A0003109A089B1890E948E0B028913892489A3
:1001B0003589600F711F821F931F07C060E070E0D8
:1001C000CB0103C060E070E0CB011F910F91089557
:1001D0009C01FC018191255F3F4F80FB879587F94A
:1001E0009191890FE217F307C1F708954F925F923B
:1001F0006F927F92AF92BF92CF92DF92EF92FF9277
:100200000F931F93CF93DF93CDB7DEB72D970FB624
:10021000F894DEBF0FBECDBFF901C080D18022812E
:100220003381205E3F4F33832283DC012C91253EB6
:1002300011F0211103C0148281E0FAC05601DC01E3
:100240001B962C911B972F3009F040C0248122234C
:1002500021F01D963C91231771F02BE2D6011D92DF
:100260002A95E9F7DC011D962C912483F60147A31A
:1002700050A761A772A7DC012C912F7330E02150A9
:1002800031094DE0429FB001439F700D11242DE0D4
:10029000E0E0F1E0DE01119601900D922A95E1F780
:1002A0006F31710508F4A7C00FC021918C01020FB6
:1002B000111DD8012C91D6012D936D01E617F7077A
:1002C00019F0E417F50789F781E0B2C07F012A0130
:1002D0003B018C01F6018081882349F0CD010E9409
:1002E000E800D70114969C91981709F468C08BE236
:1002F000F60111928A95E9F7D60197964D925D9293
:100300006D927C929A97F80190819032E9F0A60163
:1003100080E004C0319690819032B9F0DA019D936B
:10032000AD01D8011C962C9123FF0AC020812154D5
:100330002A3130F49A0121503109905ED9019C9301
:100340008F5F883039F701C080E0F60190819530E9
:1003500011F495EE9083D80118969C9118979032DD
:1003600051F191E0980F2EE2F601E80FF11D208384
:1003700018962C912032E1F0F8018C5F04C0319680
:1003800020852032B9F0A501490F511DDA012C93C7
:10039000D8011C963C9134FF07C0308531543A3166
:1003A00018F4205EDA012C939F5F9813E8CF03C006
:1003B000892F01C0892FF601E80FF11D1082F80185
:1003C0008385D60190968C93C8014A960E94650059
:1003D000F60192A381A3C8014C960E946F00D6013A
:1003E00093966D937D938D939C93969781E0F701FF
:1003F000858380E01DC02981FC01E20FF11D208171
:10040000F601E60FF71F2083FE013296DB011196FD
:10041000CA0EDB1E4FE150E0461B570B01E010E017
:100420000C0F1D1F400F511FBE01625F7F4F49CF50
:100430002D960FB6F894DEBF0FBECDBFDF91CF91E2
:100440001F910F91FF90EF90DF90CF90BF90AF90F2
:100450007F906F905F904F9008952F923F924F92B0
:100460005F926F927F928F929F92AF92BF92CF9244
:10047000DF92EF92FF920F931F93CF93DF93CDB74D
:10048000DEB7A8970FB6F894DEBF0FBECDBF0097BA
:1004900009F436C1DC0114962D913C911597232B5C
:1004A00009F431C116962D913C911797232B09F42D
:1004B0002DC12091B5013091B601232B09F429C13A
:1004C00080E090E055C1CE0101960E9465001C01BC
:1004D000CE0104960E9465009B8F8A8FBB81BEA3CC
:1004E000EE81EE8FCE0107960E94650098A78FA33C
:1004F000CE0109960E9465007C01CE010C960E94F7
:1005000065006C01CE0146960E946F002B013C01F4
:10051000672B682B692B39F4E114F10409F422C12B
:100520002701612C712CC114D10409F41BC14A8D1F
:100530005B8D9A0140E050E02A8F3B8F4C8F5D8F9E
:1005400096015E8DA52FB0E00E948E0B6E8F7F8F7F
:1005500088A399A3730162018A8D9B8DAC8DBD8D9B
:10056000C81AD90AEA0AFB0A2E8D3F8D48A159A163
:10057000C21AD30AE40AF50AC10101972FA138A5CE
:10058000220F331F22953295307F3227207F32276A
:10059000820F931FB1010E94580BA7019601261BE1
:1005A000370B41095109CA01B9013EA1C32ED12C13
:1005B000E12CF12CA70196010E946C0B69017A01D4
:1005C00045EFC4164FE0D406E104F10408F4CAC0B4
:1005D00055EFC5165FEFD506E104F10428F486E077
:1005E000D80118968C9303C08BE0F801808788E1CE
:1005F000E7EBF1E0DF011D928A95E9F7910140E018
:1006000050E02AA33BA34CA35DA3E5EBF1E0A301DB
:1006100092016AA17BA18CA19DA10E94480B6283DB
:100620007383848395832A8D3B8D4C8D5D8D6AA168
:100630007BA18CA19DA10E94480B860E971EA81E2F
:10064000B91E86829782A086B186A70196012E5F89
:100650003F4F4F4F5F4FD80118968C91863029F04D
:1006600064E070E080E090E004C062E070E080E070
:1006700090E0E5EBF1E00E94480B62877387848786
:10068000958737862686BEA1B29DC001B39D900D89
:100690001124918B808B2E8D3F8D48A159A16AA189
:1006A0007BA18CA19DA10E94480B860E971EA81EBF
:1006B000B91E868A978AA08EB18E2FA138A5C9014E
:1006C000A0E0B0E0880F991FAA1FBB1F880F991FD9
:1006D000AA1FBB1F880F991FAA1FBB1F880F991F36
:1006E000AA1FBB1F880F991FAA1FBB1F880E991E28
:1006F000AA1EBB1E828A938AA48AB58ACF0138C0FB
:1007000080E090E035C080E090E032C080E090E092
:100710002FC08C01E5EBF1E08CE1DF011D928A95A1
:10072000E9F711830083F80181849284A384B4845F
:10073000072E79E0880C991CAA1CBB1C7A95D1F76E
:10074000702DC501B401655F7F4F8F4F9F4F0190A2
:10075000F081E02D29E130E0AE014F5F5F4F099558
:100760008111B1CE1092B6011092B50180E090E0F7
:10077000A8960FB6F894DEBF0FBECDBFDF91CF9124
:100780001F910F91FF90EF90DF90CF90BF90AF90AF
:100790009F908F907F906F905F904F903F902F90A1
:1007A0000895009719F0FC011182108208950097B6
:1007B00089F06115710589F0DB0190962C9124FD7B
:1007C0000FC02091820130918301232B61F080E0E2
:1007D00090E0089580E090E0089580E090E0089532
:1007E00080E090E008952BE2FB01A4E8B1E00190E5
:1007F0000D922A95E1F7E2E8F1E09183808315A656
:1008000016A617A610AADB0191968D919C9192973E
:1008100092AB81ABCF010895009719F0FC011182D2
:10082000108208952F923F924F925F926F927F9223
:100830008F929F92AF92BF92CF92DF92EF92FF92F0
:100840000F931F93CF93DF93CDB7DEB728970FB6E3
:10085000F894DEBF0FBECDBF8C014B011A0100978B
:1008600009F4DCC0672B09F4DCC0452B09F4DCC0BB
:10087000DC019D96CD90DD90ED90FC90D097959603
:100880008D919D910D90BC91A02DB701A601420DB7
:10089000531D611D711D84179507A607B70728F41E
:1008A0001C012C183D0809F4C2C0D801ED91FC913F
:1008B000119740885188D196AD90BC90D297A114E1
:1008C000B10409F04BC09396AD90BC909497A114DD
:1008D000B10461F481E090E0CD28CE28CF2811F456
:1008E00080E090E0919581959109A6C0C114D10452
:1008F000E104F104D9F432C029813A814B815C8151
:100900008D819E81AF81B885281B390B4A0B5B0B0B
:1009100029833A834B835C83B501D8018D919C91E7
:100920000E9481005C01892B61F484C0C982DA8253
:10093000EB82FC82920140E050E02D833E834F83A6
:10094000588789819A81AB81BC812D813E814F81FD
:10095000588582179307A407B50770F6C20101975F
:10096000C822D9227101D8016D907C90B501C301D4
:100970000E94C60092012C193D09FA82E9822E15C7
:100980003F0510F43A8329836C0D7D1D811D911D57
:10099000D301ED91FC910190F081E02D29813A8104
:1009A000A4010995811104C0C1018E199F0944C099
:1009B000E981FA818E0E9F1EEE1AFF0AF80185A5C5
:1009C00096A5A7A5B0A929813A81820F931FA11DE1
:1009D000B11D85A796A7A7A7B0AB2C0D3D1D24156B
:1009E000350598F0B501808191810E9481005C01FC
:1009F000892B49F4D801D2961C921E92D197C1013D
:100A00008E199F0919C0C12CD12CF801B2AAA1AA34
:100A1000E114F10409F0A7CFC1010EC08FEF9FEFE1
:100A20000BC08FEF9FEF08C08FEF9FEF05C080E0F6
:100A300090E002C08FEF9FEF28960FB6F894DEBFCC
:100A40000FBECDBFDF91CF911F910F91FF90EF901F
:100A5000DF90CF90BF90AF909F908F907F906F90DE
:100A60005F904F903F902F900895CF93DF93009722
:100A7000B1F061157105B1F0FB0120A124FF15C093
:100A80002091200130912101232B91F020915101DF
:100A900030915201232B79F080E090E021C080E07A
:100AA00090E01EC080E090E01BC080E090E018C0A5
:100AB000C0E2D1E002C0C1E5D1E0DE0112962BE236
:100AC000FB0101900D922A95E1F799838883FB0140
:100AD00081A192A19EA78DA718AA1FA68C2F9D2F3A
:100AE000DF91CF910895009719F0FC0111821082D7
:100AF0000895FC01892B41F083A194A196A785A7B5
:100B000010AA17A681E0089580E008952F923F92E1
:100B10004F925F926F927F928F929F92AF92BF920D
:100B2000CF92DF92EF92FF920F931F93CF93DF93B9
:100B3000CDB7DEB7A6970FB6F894DEBF0FBECDBF18
:100B4000009709F495C06115710509F493C01C0163
:100B5000FC0140805180F20180889188FC01A7A4AB
:100B6000B0A8A814B90420F00E94790510E083C051
:100B7000FC0165A476A49E012F5F3F4F86E0F9013A
:100B800011928A95E9F78BE2FB0111928A95E9F7B8
:100B90007A8369836114710409F05BC0D2015296B3
:100BA0008D909C90539756968D919C915797881A4B
:100BB000990A4FC084010A191B096501E12CF12C27
:100BC0006114710461F4F20186899789A08DB18D59
:100BD000BC01CD016C0D7D1D8E1D9F1D08C0B30194
:100BE000C2010E94C6006C0D7D1D8E1D9F1D1C82C2
:100BF0001B82D201ED91FC910280F381E02D9E01D8
:100C00002F5F3F4F69010F2EF6EFEF2EF0E0FF2E22
:100C1000F02D20E230E0AE01495F5F4F0995182FBB
:100C2000882349F18B819C81A80EB91EA814B904B0
:100C300080F0B301C2010E9481003C01892B39F48C
:100C40001E8111110AC0C1010E94790514C0A12C96
:100C5000B12C8E81882309F4ADCFD1019E967C9270
:100C60006E929D97D096BC92AE929F971E8103C0C4
:100C700010E001C010E0812FA6960FB6F894DEBFF9
:100C80000FBECDBFDF91CF911F910F91FF90EF90DD
:100C9000DF90CF90BF90AF909F908F907F906F909C
:100CA0005F904F903F902F9008954F925F926F9278
:100CB0007F928F929F92AF92BF92CF92DF92EF92EC
:100CC000FF920F931F93CF93DF934C016B01EA01C7
:100CD000892B09F476C06115710509F474C0FB0114
:100CE0008081882309F471C0209709F470C08F3285
:100CF00019F4FFEFCF1ADF0A8BE2FE0111928A95F9
:100D0000E9F780E188A3F6018081882309F461C0B6
:100D1000412C512CBE01C4010E9435058C01892B48
:100D200009F459C06FE270E0C6010E94B10B009750
:100D300041F0E82EEC185C01FFEFAF1ABF0AF12C6E
:100D40002DC0F60101900020E9F73197EC19FD095B
:100D5000EE2E5601AE0EB11CF2CFFE010190002026
:100D6000E9F731973F016C1A7D0A6E147F04B1F4E4
:100D7000A301BE01C6010E94C50B892B79F4C801ED
:100D80000E947305F601E60DF71D8081882329F185
:100D900098A1892F807194FD08C020C0BE01C801B0
:100DA0000E9486058111D9CF03C06501042D152D40
:100DB000C8010E947305F60180818111ABCF81E0EB
:100DC0000DC080E00BC080E009C080E007C080E07B
:100DD00005C081E003C080E001C081E0DF91CF91D8
:100DE0001F910F91FF90EF90DF90CF90BF90AF9049
:100DF0009F908F907F906F905F904F900895EF92AB
:100E0000FF920F931F93CF93DF938B017A01E90138
:100E10000BC0B701CE010E94BC0B892B29F4C8017D
:100E20000E94790581E006C0BE01C8010E948605C6
:100E30008111EFCFDF91CF911F910F91FF90EF9034
:100E400008950F931F93CF93DF93CDB7DEB7AB9782
:100E50000FB6F894DEBF0FBECDBF8C019E012F5F91
:100E60003F4F0E94FF06882339F0BE016F5F7F4F1E
:100E7000C8010E94D70302C080E090E0AB960FB695
:100E8000F894DEBF0FBECDBFDF91CF911F910F91C0
:100E90000895AF92BF92CF92DF92EF92FF920F939D
:100EA0001F93CF93DF93CDB7DEB7E3970FB6F894D8
:100EB000DEBF0FBECDBF0E94860900E020E030E01B
:100EC00040E050E067E17AE083ED98E00E94BA07E5
:100ED0006C01892B61F40FEF20E030E040E050E03E
:100EE00067E17AE083ED98E00E94BA076C01C601E1
:100EF0000E942D027C01AE014F5F5F4F6DE071E0FB
:100F00000E945506BE016F5F7F4FC7010E943505E5
:100F10005C014FE051E0BC01C7010E9421078C0138
:100F200048E050E0BE01645D7F4FC8010E9412049A
:100F300018161906ACF3C8010E940C04C5010E94E2
:100F40007305C7010E94D103C6010E945C0880E0BE
:100F500090E0E3960FB6F894DEBF0FBECDBFDF91F1
:100F6000CF911F910F91FF90EF90DF90CF90BF90A6
:100F7000AF9008958F929F92AF92BF92CF92DF92DF
:100F8000EF92FF920F931F93CF93DF93CDB7DEB70E
:100F900060970FB6F894DEBF0FBECDBF009729F162
:100FA0006115710529F1043034F500230CF46BC090
:100FB00049015A016B017C0180E10802B001112452
:100FC00062547E4F072E000C880B990B20E130E015
:100FD000AE014F5F5F4FF7010995882379F08D814E
:100FE000811137C080E090E054C080E090E051C0B3
:100FF00080E090E04EC080E090E04BC080E090E068
:1010000048C001ED11E081E1D8011D928A95E9F710
:10101000F801F182E082D382C282B582A4829782F3
:1010200086828D818087CE0109960E946F00D8014B
:1010300019966D937D938D939C931C97CE010D967D
:101040000E946F00F801658776878787908BC801BB
:1010500020C08091D9018823A1F280E090E019C0DE
:10106000E1EDF1E011E1DF011D921A95E9F79183BD
:1010700080837383628355834483378326838FEF12
:101080008087CF0106C0E091D901EE2349F380E0CB
:1010900090E060960FB6F894DEBF0FBECDBFDF9133
:1010A000CF911F910F91FF90EF90DF90CF90BF9065
:1010B000AF909F908F900895009721F0FC011086CB
:1010C00081E0089580E008958FB9779BFECF7798EF
:1010D00008958FEF8FB9779BFECF77988FB10895E2
:1010E000FF920F931F93CF93DF93C82FD42F152F09
:1010F000062FF72E0E9469088C2F80640E946408D6
:101100008F2D0E946408802F0E946408812F0E9406
:1011100064088D2F0E946408CC2319F0C83029F090
:1011200008C085E90E9464080FC087E80E9464082F
:101130000BC08FEF0E94640807C00E9469088F3FB0
:1011400029F4C150D1F702C0CAE0F7CFDF91CF91A7
:101150001F910F91FF90089583B38295817091E064
:101160008927089583B385FB882780F991E0892733
:1011700008958091E301811114C06091E4017091A0
:10118000E5018091E6019091E70120E032E048EE30
:1011900051E00E94710A882329F081E08093E301E5
:1011A000089581E008952F923F924F925F926F923F
:1011B0007F928F929F92AF92BF92CF92DF92EF92E7
:1011C000FF920F931F93CF93DF9300D000D0CDB742
:1011D000DEB74B015C015A8349837901232B09F463
:1011E0007DC008EE13E0140181E0382224013501AE
:1011F0004218530861087108C12C6894DD24D1F8A5
:10120000C218D308EC14FD0408F467018091E401CE
:101210009091E501A091E601B091E70148165906C9
:101220006A067B0609F440C00E94B908882309F4C5
:1012300056C0C098B301A20181E10E9470088823C2
:1012400019F0C09A80E04BC00E9469088E3FE1F718
:10125000E8EEF1E0FC83EB830E946908EB81FC81FE
:101260008193FC83EB830E171F07B1F74092E401D3
:101270005092E5016092E6017092E701B101685178
:101280007E4FA60189819A810E94A80B89819A814B
:101290008C0D9D1D9A8389830E9469080E946908AC
:1012A000C09A0E9469080EC0B10168517E4FA60124
:1012B00089819A810E94A80BE981FA81EC0DFD1DBC
:1012C000FA83E983EC18FD088C0C9D1CA11CB11C51
:1012D000E114F10409F087CF81E001C081E00F90B3
:1012E0000F900F900F90DF91CF911F910F91FF9072
:1012F000EF90DF90CF90BF90AF909F908F907F90B6
:101300006F905F904F903F902F9008950F931F9391
:10131000CF93DF93A498A598BA9AB99AB89ABB9834
:10132000C09A83E58DB970981092E2010E94AC08D2
:10133000082F882309F475C01AE00E94690811502B
:10134000E1F7C098C0E0D2E040E050E0BA0180E0B0
:101350000E947008813029F02197B1F7C09A012FBF
:1013600060C040E050E0BA0187E30E94700840E0AE
:1013700050E0BA0189E20E94700882FD05C08091A8
:10138000E20181608093E201C0E0D0E88091E20157
:10139000837069F040E050E0BA0187E30E94700872
:1013A00040E050E0BA0189E20E94700806C040E0C7
:1013B00050E0BA0181E00E947008082F017080FFA0
:1013C00005C0219719F7C09A012F2BC040E052E0C9
:1013D00060E070E080E10E947008882311F0C09AFC
:1013E00020C0C09A8DB18C7F8DB9709A8FEF9FEF1E
:1013F000DC018093E4019093E501A093E601B093B2
:10140000E70181E08093E30120E032E048EE51E023
:1014100060E070E0CB010E94D30801E0811101C0BF
:1014200000E0802FDF91CF911F910F9108952F92AF
:101430003F924F925F926F927F928F929F92AF9264
:10144000BF92CF92DF92EF92FF920F931F93CF93B1
:10145000DF934B015C011A01E901452B31F1209723
:1014600031F10217130728F1E114F10421F12901E8
:10147000612C712C9E01A101C501B4010E94D30809
:101480008823E1F09601B501A401C101F701099596
:10149000882399F0840C951CA61CB71C0C1B1D0BF3
:1014A0000C171D0738F781E009C080E007C080E015
:1014B00005C080E003C080E001C081E0DF91CF91F2
:1014C0001F910F91FF90EF90DF90CF90BF90AF9062
:1014D0009F908F907F906F905F904F903F902F9054
:1014E00008952F923F924F925F926F927F928F92C8
:1014F0009F92AF92BF92CF92DF92EF92FF920F93A3
:101500001F93CF93DF9300D01F92CDB7DEB74B016F
:101510005C011A0169010E94B2088983811196C099
:10152000C114D10409F494C008EE13E0C401917011
:101530009B838A8324013501481A590A610871087E
:10154000E12C6894FF24F1F8E81AF90ACE14DF04BC
:1015500008F476018091E4019091E501A091E60103
:10156000B091E701481659066A067B0601F10E9410
:10157000B908882309F46FC08A819B81892B21F4E3
:10158000E11492E0F90658F420E032E048EE51E030
:10159000C301B2010E94D308882309F45EC04092BF
:1015A000E4015092E5016092E6017092E701E8EEF5
:1015B0002E16E1E03E0671F0A701B1018A819B8100
:1015C00088519E4F0E94A80B1092E301EC14FD0479
:1015D00009F445C0C098B301A20188E10E947008D7
:1015E000882311F0C09A3DC08EEF0E94640888EEF7
:1015F00091E09B838A83EA81FB818191FB83EA836B
:101600000E9464088A819B8108171907A1F78FEF50
:101610000E9464088FEF0E9464080E9469088F3F4F
:10162000E1F70E946908C09A2E0C3F1C8E0C9F1C8B
:10163000A11CB11CCE18DF0891E09093E301C11406
:10164000D10409F073CFE1E0E9830BC0198209C02E
:10165000F1E0F98306C0898304C0898302C081E078
:10166000898389810F900F900F90DF91CF911F9107
:101670000F91FF90EF90DF90CF90BF90AF909F9031
:101680008F907F906F905F904F903F902F90089534
:10169000DB018F939F930E949D0BBF91AF91A29FFF
:1016A000800D911DA39F900DB29F900D1124089560
:1016B000AA1BBB1B51E107C0AA1FBB1FA617B70778
:1016C00010F0A61BB70B881F991F5A95A9F7809594
:1016D0009095BC01CD010895A1E21A2EAA1BBB1B57
:1016E000FD010DC0AA1FBB1FEE1FFF1FA217B307EE
:1016F000E407F50720F0A21BB30BE40BF50B661F04
:10170000771F881F991F1A9469F7609570958095C7
:1017100090959B01AC01BD01CF010895A29FB0013E
:10172000B39FC001A39F700D811D1124911DB29F15
:10173000700D811D1124911D08950E948E0BA59F8F
:10174000900DB49F900DA49F800D911D11240895BC
:10175000FB01DC0102C001900D9241505040D8F7CE
:101760000895FC018191861721F08823D9F79927E4
:1017700008953197CF010895FB01DC018D9101900F
:1017800080190110D9F3990B0895FB01DC01415038
:10179000504030F08D910190801919F40020B9F774
:0A17A000881B990B0895F894FFCF01
:1017AA0001030507090E10121416181C1E2F0066D5
:1017BA006F7265636173745F6430302E64617400A4
:00000001FF
