:100000000C9456000C9460000C9460000C946000FA
:100010000C9460000C9460000C9460000C946000E0
:100020000C9460000C9460000C9460000C946000D0
:100030000C9460000C9460000C9460000C946000C0
:100040000C9460000C9460000C9460000C946000B0
:100050000C9460000C9460000C9460000C946000A0
:100060000C9460000C9460000C9460000C94600090
:100070000C9460000C9460000C9460000C94600080
:100080000C9460000C9460000C9460000C94600070
:100090000C9460000C9460000C9460000C94600060
:1000A0000C9460000C9460000C94600011241FBE3E
:1000B000CFEFDAE0DEBFCDBF0E94E5000C948E01E9
:1000C0000C940000FC01662379F0A381B4812C918B
:1000D00081E090E0028002C0880F991F0A94E2F745
:1000E000809582238C930895A381B4814C9121E063
:1000F00030E0C901028002C0880F991F0A94E2F71C
:10010000842B8C930895DC011596ED91FC91169744
:10011000408121E030E012960C9002C0220F331F84
:100120000A94E2F7242B208361E00E9462000E947F
:10013000100108950F931F93FC014283348323839E
:100140001683058380EA860F808360556183CF0123
:100150000E9483001F910F9108951F93CF93DF9307
:10016000162FD72FC42FFC0180810E943D01812FC3
:100170000E9471018D2F0E9471018C2F0E947101CC
:100180000E946801DF91CF911F9108950F931F93F3
:10019000CF93DF93EC01062F172F88810E943D013A
:1001A000802F0E947101812F0E94710188818F5FD1
:1001B0000E9465010E948301C82F0E9468018C2F54
:1001C000DF91CF911F910F910895CF93DF93CDB71A
:1001D000DEB727970FB6F894DEBF0FBECDBF0AE299
:1001E00010E02BE230E045E060E0CE0101960E9495
:1001F0009A004AE266E170E0CE0101960E94AD00ED
:1002000066E170E0CE0101960E94C6002FE986E803
:1002100091E0215080409040E1F700C00000E9CF1C
:100220001092B9008CE08093B800089594EA9093FE
:10023000BC00ECEBF0E090819923ECF79091B900D1
:10024000987F983011F09031A1F48093BB0084E83E
:100250008093BC00ECEBF0E080818823ECF7909178
:10026000B900987F983139F081E0903429F480E02A
:10027000089581E0089580E00895CF93DF93ECEB3B
:10028000F0E024EAA9EBB0E0CBEBD0E034E844E9BD
:10029000208390819923ECF79C91987F983011F0FE
:1002A0009031B1F78883308390819923ECF79C914A
:1002B000987F903211F0983529F44083908194FD15
:1002C000FDCFE6CFDF91CF9108950E9416010895EA
:1002D00084E98093BC00ECEBF0E0808184FDFDCFED
:1002E00008958093BB0084E88093BC00ECEBF0E0C1
:1002F00080818823ECF79091B900987F81E0983253
:1003000009F480E0089584E88093BC00ECEBF0E011
:1003100080818823ECF78091BB000895F894FFCF8B
:00000001FF
